{
  "_format": "hh-sol-artifact-1",
  "contractName": "NFT",
  "sourceName": "contracts/NFT.sol",
  "abi": [
    {
      "inputs": [
        {
          "internalType": "address",
          "name": "key",
          "type": "address"
        },
        {
          "internalType": "string",
          "name": "ipfsLink",
          "type": "string"
        }
      ],
      "stateMutability": "nonpayable",
      "type": "constructor"
    },
    {
      "anonymous": false,
      "inputs": [
        {
          "indexed": true,
          "internalType": "address",
          "name": "owner",
          "type": "address"
        },
        {
          "indexed": true,
          "internalType": "address",
          "name": "approved",
          "type": "address"
        },
        {
          "indexed": true,
          "internalType": "uint256",
          "name": "tokenId",
          "type": "uint256"
        }
      ],
      "name": "Approval",
      "type": "event"
    },
    {
      "anonymous": false,
      "inputs": [
        {
          "indexed": true,
          "internalType": "address",
          "name": "owner",
          "type": "address"
        },
        {
          "indexed": true,
          "internalType": "address",
          "name": "operator",
          "type": "address"
        },
        {
          "indexed": false,
          "internalType": "bool",
          "name": "approved",
          "type": "bool"
        }
      ],
      "name": "ApprovalForAll",
      "type": "event"
    },
    {
      "anonymous": false,
      "inputs": [
        {
          "indexed": true,
          "internalType": "address",
          "name": "previousOwner",
          "type": "address"
        },
        {
          "indexed": true,
          "internalType": "address",
          "name": "newOwner",
          "type": "address"
        }
      ],
      "name": "OwnershipTransferred",
      "type": "event"
    },
    {
      "anonymous": false,
      "inputs": [
        {
          "indexed": true,
          "internalType": "address",
          "name": "from",
          "type": "address"
        },
        {
          "indexed": true,
          "internalType": "address",
          "name": "to",
          "type": "address"
        },
        {
          "indexed": true,
          "internalType": "uint256",
          "name": "tokenId",
          "type": "uint256"
        }
      ],
      "name": "Transfer",
      "type": "event"
    },
    {
      "inputs": [],
      "name": "MAX_MINT_PER_TX",
      "outputs": [
        {
          "internalType": "uint256",
          "name": "",
          "type": "uint256"
        }
      ],
      "stateMutability": "view",
      "type": "function"
    },
    {
      "inputs": [],
      "name": "MAX_TOKENS",
      "outputs": [
        {
          "internalType": "uint256",
          "name": "",
          "type": "uint256"
        }
      ],
      "stateMutability": "view",
      "type": "function"
    },
    {
      "inputs": [
        {
          "internalType": "address",
          "name": "to",
          "type": "address"
        },
        {
          "internalType": "uint256",
          "name": "tokenId",
          "type": "uint256"
        }
      ],
      "name": "approve",
      "outputs": [],
      "stateMutability": "nonpayable",
      "type": "function"
    },
    {
      "inputs": [
        {
          "internalType": "address",
          "name": "owner",
          "type": "address"
        }
      ],
      "name": "balanceOf",
      "outputs": [
        {
          "internalType": "uint256",
          "name": "",
          "type": "uint256"
        }
      ],
      "stateMutability": "view",
      "type": "function"
    },
    {
      "inputs": [],
      "name": "baseExtesion",
      "outputs": [
        {
          "internalType": "string",
          "name": "",
          "type": "string"
        }
      ],
      "stateMutability": "view",
      "type": "function"
    },
    {
      "inputs": [],
      "name": "baseUri",
      "outputs": [
        {
          "internalType": "string",
          "name": "",
          "type": "string"
        }
      ],
      "stateMutability": "view",
      "type": "function"
    },
    {
      "inputs": [],
      "name": "flipSaleState",
      "outputs": [],
      "stateMutability": "nonpayable",
      "type": "function"
    },
    {
      "inputs": [
        {
          "internalType": "uint256",
          "name": "tokenId",
          "type": "uint256"
        }
      ],
      "name": "getApproved",
      "outputs": [
        {
          "internalType": "address",
          "name": "",
          "type": "address"
        }
      ],
      "stateMutability": "view",
      "type": "function"
    },
    {
      "inputs": [
        {
          "internalType": "address",
          "name": "owner",
          "type": "address"
        },
        {
          "internalType": "address",
          "name": "operator",
          "type": "address"
        }
      ],
      "name": "isApprovedForAll",
      "outputs": [
        {
          "internalType": "bool",
          "name": "",
          "type": "bool"
        }
      ],
      "stateMutability": "view",
      "type": "function"
    },
    {
      "inputs": [],
      "name": "isSaleActive",
      "outputs": [
        {
          "internalType": "bool",
          "name": "",
          "type": "bool"
        }
      ],
      "stateMutability": "view",
      "type": "function"
    },
    {
      "inputs": [
        {
          "internalType": "uint256",
          "name": "_numTokens",
          "type": "uint256"
        }
      ],
      "name": "mint",
      "outputs": [],
      "stateMutability": "payable",
      "type": "function"
    },
    {
      "inputs": [],
      "name": "name",
      "outputs": [
        {
          "internalType": "string",
          "name": "",
          "type": "string"
        }
      ],
      "stateMutability": "view",
      "type": "function"
    },
    {
      "inputs": [],
      "name": "owner",
      "outputs": [
        {
          "internalType": "address",
          "name": "",
          "type": "address"
        }
      ],
      "stateMutability": "view",
      "type": "function"
    },
    {
      "inputs": [
        {
          "internalType": "uint256",
          "name": "tokenId",
          "type": "uint256"
        }
      ],
      "name": "ownerOf",
      "outputs": [
        {
          "internalType": "address",
          "name": "",
          "type": "address"
        }
      ],
      "stateMutability": "view",
      "type": "function"
    },
    {
      "inputs": [],
      "name": "pKey",
      "outputs": [
        {
          "internalType": "address",
          "name": "",
          "type": "address"
        }
      ],
      "stateMutability": "view",
      "type": "function"
    },
    {
      "inputs": [],
      "name": "price",
      "outputs": [
        {
          "internalType": "uint256",
          "name": "",
          "type": "uint256"
        }
      ],
      "stateMutability": "view",
      "type": "function"
    },
    {
      "inputs": [],
      "name": "renounceOwnership",
      "outputs": [],
      "stateMutability": "nonpayable",
      "type": "function"
    },
    {
      "inputs": [
        {
          "internalType": "address",
          "name": "from",
          "type": "address"
        },
        {
          "internalType": "address",
          "name": "to",
          "type": "address"
        },
        {
          "internalType": "uint256",
          "name": "tokenId",
          "type": "uint256"
        }
      ],
      "name": "safeTransferFrom",
      "outputs": [],
      "stateMutability": "nonpayable",
      "type": "function"
    },
    {
      "inputs": [
        {
          "internalType": "address",
          "name": "from",
          "type": "address"
        },
        {
          "internalType": "address",
          "name": "to",
          "type": "address"
        },
        {
          "internalType": "uint256",
          "name": "tokenId",
          "type": "uint256"
        },
        {
          "internalType": "bytes",
          "name": "data",
          "type": "bytes"
        }
      ],
      "name": "safeTransferFrom",
      "outputs": [],
      "stateMutability": "nonpayable",
      "type": "function"
    },
    {
      "inputs": [
        {
          "internalType": "address",
          "name": "operator",
          "type": "address"
        },
        {
          "internalType": "bool",
          "name": "approved",
          "type": "bool"
        }
      ],
      "name": "setApprovalForAll",
      "outputs": [],
      "stateMutability": "nonpayable",
      "type": "function"
    },
    {
      "inputs": [
        {
          "internalType": "string",
          "name": "_baseUri",
          "type": "string"
        }
      ],
      "name": "setBaseUri",
      "outputs": [],
      "stateMutability": "nonpayable",
      "type": "function"
    },
    {
      "inputs": [
        {
          "internalType": "uint256",
          "name": "_price",
          "type": "uint256"
        }
      ],
      "name": "setPrice",
      "outputs": [],
      "stateMutability": "nonpayable",
      "type": "function"
    },
    {
      "inputs": [
        {
          "internalType": "bytes4",
          "name": "interfaceId",
          "type": "bytes4"
        }
      ],
      "name": "supportsInterface",
      "outputs": [
        {
          "internalType": "bool",
          "name": "",
          "type": "bool"
        }
      ],
      "stateMutability": "view",
      "type": "function"
    },
    {
      "inputs": [],
      "name": "symbol",
      "outputs": [
        {
          "internalType": "string",
          "name": "",
          "type": "string"
        }
      ],
      "stateMutability": "view",
      "type": "function"
    },
    {
      "inputs": [
        {
          "internalType": "uint256",
          "name": "tokenId",
          "type": "uint256"
        }
      ],
      "name": "tokenURI",
      "outputs": [
        {
          "internalType": "string",
          "name": "",
          "type": "string"
        }
      ],
      "stateMutability": "view",
      "type": "function"
    },
    {
      "inputs": [],
      "name": "totalSupply",
      "outputs": [
        {
          "internalType": "uint256",
          "name": "",
          "type": "uint256"
        }
      ],
      "stateMutability": "view",
      "type": "function"
    },
    {
      "inputs": [
        {
          "internalType": "address",
          "name": "from",
          "type": "address"
        },
        {
          "internalType": "address",
          "name": "to",
          "type": "address"
        },
        {
          "internalType": "uint256",
          "name": "tokenId",
          "type": "uint256"
        }
      ],
      "name": "transferFrom",
      "outputs": [],
      "stateMutability": "nonpayable",
      "type": "function"
    },
    {
      "inputs": [
        {
          "internalType": "address",
          "name": "newOwner",
          "type": "address"
        }
      ],
      "name": "transferOwnership",
      "outputs": [],
      "stateMutability": "nonpayable",
      "type": "function"
    },
    {
      "inputs": [],
      "name": "withdrawAll",
      "outputs": [],
      "stateMutability": "payable",
      "type": "function"
    }
  ],
  "bytecode": "0x608060405267016345785d8a00006008556040518060400160405280600581526020017f2e6a736f6e000000000000000000000000000000000000000000000000000000815250600d908162000056919062000b7c565b503480156200006457600080fd5b5060405162004cc038038062004cc083398181016040528101906200008a919062000e2c565b6040518060400160405280601281526020017f48616e647069636b6564204469706c6f6d6100000000000000000000000000008152506040518060400160405280600381526020017f4850440000000000000000000000000000000000000000000000000000000000815250816000908162000107919062000b7c565b50806001908162000119919062000b7c565b5050506200013c62000130620001d560201b60201c565b620001dd60201b60201c565b80600c90816200014d919062000b7c565b5081600760006101000a81548173ffffffffffffffffffffffffffffffffffffffff021916908373ffffffffffffffffffffffffffffffffffffffff1602179055506000600190505b600a8111620001c557620001b13382620002a360201b60201c565b80620001bd9062000ec1565b905062000196565b50600a8081905550505062001273565b600033905090565b6000600660009054906101000a900473ffffffffffffffffffffffffffffffffffffffff16905081600660006101000a81548173ffffffffffffffffffffffffffffffffffffffff021916908373ffffffffffffffffffffffffffffffffffffffff1602179055508173ffffffffffffffffffffffffffffffffffffffff168173ffffffffffffffffffffffffffffffffffffffff167f8be0079c531659141344cd1fd0a4f28419497f9722a3daafe3b4186f6b6457e060405160405180910390a35050565b620002c5828260405180602001604052806000815250620002c960201b60201c565b5050565b620002db83836200033760201b60201c565b620002f060008484846200057d60201b60201c565b62000332576040517f08c379a0000000000000000000000000000000000000000000000000000000008152600401620003299062000f95565b60405180910390fd5b505050565b600073ffffffffffffffffffffffffffffffffffffffff168273ffffffffffffffffffffffffffffffffffffffff1603620003a9576040517f08c379a0000000000000000000000000000000000000000000000000000000008152600401620003a09062001007565b60405180910390fd5b620003ba816200072660201b60201c565b15620003fd576040517f08c379a0000000000000000000000000000000000000000000000000000000008152600401620003f49062001079565b60405180910390fd5b620004136000838360016200076f60201b60201c565b62000424816200072660201b60201c565b1562000467576040517f08c379a00000000000000000000000000000000000000000000000000000000081526004016200045e9062001079565b60405180910390fd5b6001600360008473ffffffffffffffffffffffffffffffffffffffff1673ffffffffffffffffffffffffffffffffffffffff16815260200190815260200160002060008282540192505081905550816002600083815260200190815260200160002060006101000a81548173ffffffffffffffffffffffffffffffffffffffff021916908373ffffffffffffffffffffffffffffffffffffffff160217905550808273ffffffffffffffffffffffffffffffffffffffff16600073ffffffffffffffffffffffffffffffffffffffff167fddf252ad1be2c89b69c2b068fc378daa952ba7f163c4a11628f55a4df523b3ef60405160405180910390a4620005796000838360016200089c60201b60201c565b5050565b6000620005ab8473ffffffffffffffffffffffffffffffffffffffff16620008a260201b620013ef1760201c565b1562000719578373ffffffffffffffffffffffffffffffffffffffff1663150b7a02620005dd620001d560201b60201c565b8786866040518563ffffffff1660e01b81526004016200060194939291906200111a565b6020604051808303816000875af19250505080156200064057506040513d601f19601f820116820180604052508101906200063d9190620011cb565b60015b620006c8573d806000811462000673576040519150601f19603f3d011682016040523d82523d6000602084013e62000678565b606091505b506000815103620006c0576040517f08c379a0000000000000000000000000000000000000000000000000000000008152600401620006b79062000f95565b60405180910390fd5b805181602001fd5b63150b7a0260e01b7bffffffffffffffffffffffffffffffffffffffffffffffffffffffff1916817bffffffffffffffffffffffffffffffffffffffffffffffffffffffff1916149150506200071e565b600190505b949350505050565b60008073ffffffffffffffffffffffffffffffffffffffff166200075083620008c560201b60201c565b73ffffffffffffffffffffffffffffffffffffffff1614159050919050565b60018111156200089657600073ffffffffffffffffffffffffffffffffffffffff168473ffffffffffffffffffffffffffffffffffffffff1614620008075780600360008673ffffffffffffffffffffffffffffffffffffffff1673ffffffffffffffffffffffffffffffffffffffff1681526020019081526020016000206000828254620007ff9190620011fd565b925050819055505b600073ffffffffffffffffffffffffffffffffffffffff168373ffffffffffffffffffffffffffffffffffffffff1614620008955780600360008573ffffffffffffffffffffffffffffffffffffffff1673ffffffffffffffffffffffffffffffffffffffff16815260200190815260200160002060008282546200088d919062001238565b925050819055505b5b50505050565b50505050565b6000808273ffffffffffffffffffffffffffffffffffffffff163b119050919050565b60006002600083815260200190815260200160002060009054906101000a900473ffffffffffffffffffffffffffffffffffffffff169050919050565b600081519050919050565b7f4e487b7100000000000000000000000000000000000000000000000000000000600052604160045260246000fd5b7f4e487b7100000000000000000000000000000000000000000000000000000000600052602260045260246000fd5b600060028204905060018216806200098457607f821691505b6020821081036200099a57620009996200093c565b5b50919050565b60008190508160005260206000209050919050565b60006020601f8301049050919050565b600082821b905092915050565b60006008830262000a047fffffffffffffffffffffffffffffffffffffffffffffffffffffffffffffffff82620009c5565b62000a108683620009c5565b95508019841693508086168417925050509392505050565b6000819050919050565b6000819050919050565b600062000a5d62000a5762000a518462000a28565b62000a32565b62000a28565b9050919050565b6000819050919050565b62000a798362000a3c565b62000a9162000a888262000a64565b848454620009d2565b825550505050565b600090565b62000aa862000a99565b62000ab581848462000a6e565b505050565b5b8181101562000add5762000ad160008262000a9e565b60018101905062000abb565b5050565b601f82111562000b2c5762000af681620009a0565b62000b0184620009b5565b8101602085101562000b11578190505b62000b2962000b2085620009b5565b83018262000aba565b50505b505050565b600082821c905092915050565b600062000b516000198460080262000b31565b1980831691505092915050565b600062000b6c838362000b3e565b9150826002028217905092915050565b62000b878262000902565b67ffffffffffffffff81111562000ba35762000ba26200090d565b5b62000baf82546200096b565b62000bbc82828562000ae1565b600060209050601f83116001811462000bf4576000841562000bdf578287015190505b62000beb858262000b5e565b86555062000c5b565b601f19841662000c0486620009a0565b60005b8281101562000c2e5784890151825560018201915060208501945060208101905062000c07565b8683101562000c4e578489015162000c4a601f89168262000b3e565b8355505b6001600288020188555050505b505050505050565b6000604051905090565b600080fd5b600080fd5b600073ffffffffffffffffffffffffffffffffffffffff82169050919050565b600062000ca48262000c77565b9050919050565b62000cb68162000c97565b811462000cc257600080fd5b50565b60008151905062000cd68162000cab565b92915050565b600080fd5b600080fd5b6000601f19601f8301169050919050565b62000d028262000ce6565b810181811067ffffffffffffffff8211171562000d245762000d236200090d565b5b80604052505050565b600062000d3962000c63565b905062000d47828262000cf7565b919050565b600067ffffffffffffffff82111562000d6a5762000d696200090d565b5b62000d758262000ce6565b9050602081019050919050565b60005b8381101562000da257808201518184015260208101905062000d85565b60008484015250505050565b600062000dc562000dbf8462000d4c565b62000d2d565b90508281526020810184848401111562000de45762000de362000ce1565b5b62000df184828562000d82565b509392505050565b600082601f83011262000e115762000e1062000cdc565b5b815162000e2384826020860162000dae565b91505092915050565b6000806040838503121562000e465762000e4562000c6d565b5b600062000e568582860162000cc5565b925050602083015167ffffffffffffffff81111562000e7a5762000e7962000c72565b5b62000e888582860162000df9565b9150509250929050565b7f4e487b7100000000000000000000000000000000000000000000000000000000600052601160045260246000fd5b600062000ece8262000a28565b91507fffffffffffffffffffffffffffffffffffffffffffffffffffffffffffffffff820362000f035762000f0262000e92565b5b600182019050919050565b600082825260208201905092915050565b7f4552433732313a207472616e7366657220746f206e6f6e20455243373231526560008201527f63656976657220696d706c656d656e7465720000000000000000000000000000602082015250565b600062000f7d60328362000f0e565b915062000f8a8262000f1f565b604082019050919050565b6000602082019050818103600083015262000fb08162000f6e565b9050919050565b7f4552433732313a206d696e7420746f20746865207a65726f2061646472657373600082015250565b600062000fef60208362000f0e565b915062000ffc8262000fb7565b602082019050919050565b60006020820190508181036000830152620010228162000fe0565b9050919050565b7f4552433732313a20746f6b656e20616c7265616479206d696e74656400000000600082015250565b600062001061601c8362000f0e565b91506200106e8262001029565b602082019050919050565b60006020820190508181036000830152620010948162001052565b9050919050565b620010a68162000c97565b82525050565b620010b78162000a28565b82525050565b600081519050919050565b600082825260208201905092915050565b6000620010e682620010bd565b620010f28185620010c8565b93506200110481856020860162000d82565b6200110f8162000ce6565b840191505092915050565b60006080820190506200113160008301876200109b565b6200114060208301866200109b565b6200114f6040830185620010ac565b8181036060830152620011638184620010d9565b905095945050505050565b60007fffffffff0000000000000000000000000000000000000000000000000000000082169050919050565b620011a5816200116e565b8114620011b157600080fd5b50565b600081519050620011c5816200119a565b92915050565b600060208284031215620011e457620011e362000c6d565b5b6000620011f484828501620011b4565b91505092915050565b60006200120a8262000a28565b9150620012178362000a28565b925082820390508181111562001232576200123162000e92565b5b92915050565b6000620012458262000a28565b9150620012528362000a28565b92508282019050808211156200126d576200126c62000e92565b5b92915050565b613a3d80620012836000396000f3fe6080604052600436106101c25760003560e01c80638ecad721116100f7578063a22cb46511610095578063d6960ffb11610064578063d6960ffb146105ee578063e985e9c514610619578063f2fde38b14610656578063f47c84c51461067f576101c2565b8063a22cb46514610534578063b88d4fde1461055d578063c7a22f5e14610586578063c87b56dd146105b1576101c2565b80639abc8320116100d15780639abc832014610499578063a035b1fe146104c4578063a0712d68146104ef578063a0bcfc7f1461050b576101c2565b80638ecad7211461041a57806391b7f5ed1461044557806395d89b411461046e576101c2565b806342842e0e1161016457806370a082311161013e57806370a0823114610391578063715018a6146103ce578063853828b6146103e55780638da5cb5b146103ef576101c2565b806342842e0e14610300578063564566a8146103295780636352211e14610354576101c2565b8063095ea7b3116101a0578063095ea7b31461026c57806318160ddd1461029557806323b872dd146102c057806334918dfd146102e9576101c2565b806301ffc9a7146101c757806306fdde0314610204578063081812fc1461022f575b600080fd5b3480156101d357600080fd5b506101ee60048036038101906101e9919061248d565b6106aa565b6040516101fb91906124d5565b60405180910390f35b34801561021057600080fd5b5061021961078c565b6040516102269190612580565b60405180910390f35b34801561023b57600080fd5b50610256600480360381019061025191906125d8565b61081e565b6040516102639190612646565b60405180910390f35b34801561027857600080fd5b50610293600480360381019061028e919061268d565b610864565b005b3480156102a157600080fd5b506102aa61097b565b6040516102b791906126dc565b60405180910390f35b3480156102cc57600080fd5b506102e760048036038101906102e291906126f7565b610981565b005b3480156102f557600080fd5b506102fe6109e1565b005b34801561030c57600080fd5b50610327600480360381019061032291906126f7565b610a15565b005b34801561033557600080fd5b5061033e610a35565b60405161034b91906124d5565b60405180910390f35b34801561036057600080fd5b5061037b600480360381019061037691906125d8565b610a48565b6040516103889190612646565b60405180910390f35b34801561039d57600080fd5b506103b860048036038101906103b3919061274a565b610ace565b6040516103c591906126dc565b60405180910390f35b3480156103da57600080fd5b506103e3610b85565b005b6103ed610b99565b005b3480156103fb57600080fd5b50610404610d4c565b6040516104119190612646565b60405180910390f35b34801561042657600080fd5b5061042f610d76565b60405161043c91906126dc565b60405180910390f35b34801561045157600080fd5b5061046c600480360381019061046791906125d8565b610d7b565b005b34801561047a57600080fd5b50610483610d8d565b6040516104909190612580565b60405180910390f35b3480156104a557600080fd5b506104ae610e1f565b6040516104bb9190612580565b60405180910390f35b3480156104d057600080fd5b506104d9610ead565b6040516104e691906126dc565b60405180910390f35b610509600480360381019061050491906125d8565b610eb3565b005b34801561051757600080fd5b50610532600480360381019061052d91906128ac565b611123565b005b34801561054057600080fd5b5061055b60048036038101906105569190612921565b61113e565b005b34801561056957600080fd5b50610584600480360381019061057f9190612a02565b611154565b005b34801561059257600080fd5b5061059b6111b6565b6040516105a89190612646565b60405180910390f35b3480156105bd57600080fd5b506105d860048036038101906105d391906125d8565b6111dc565b6040516105e59190612580565b60405180910390f35b3480156105fa57600080fd5b50610603611244565b6040516106109190612580565b60405180910390f35b34801561062557600080fd5b50610640600480360381019061063b9190612a85565b6112d2565b60405161064d91906124d5565b60405180910390f35b34801561066257600080fd5b5061067d6004803603810190610678919061274a565b611366565b005b34801561068b57600080fd5b506106946113e9565b6040516106a191906126dc565b60405180910390f35b60007f80ac58cd000000000000000000000000000000000000000000000000000000007bffffffffffffffffffffffffffffffffffffffffffffffffffffffff1916827bffffffffffffffffffffffffffffffffffffffffffffffffffffffff1916148061077557507f5b5e139f000000000000000000000000000000000000000000000000000000007bffffffffffffffffffffffffffffffffffffffffffffffffffffffff1916827bffffffffffffffffffffffffffffffffffffffffffffffffffffffff1916145b80610785575061078482611412565b5b9050919050565b60606000805461079b90612af4565b80601f01602080910402602001604051908101604052809291908181526020018280546107c790612af4565b80156108145780601f106107e957610100808354040283529160200191610814565b820191906000526020600020905b8154815290600101906020018083116107f757829003601f168201915b5050505050905090565b60006108298261147c565b6004600083815260200190815260200160002060009054906101000a900473ffffffffffffffffffffffffffffffffffffffff169050919050565b600061086f82610a48565b90508073ffffffffffffffffffffffffffffffffffffffff168373ffffffffffffffffffffffffffffffffffffffff16036108df576040517f08c379a00000000000000000000000000000000000000000000000000000000081526004016108d690612b97565b60405180910390fd5b8073ffffffffffffffffffffffffffffffffffffffff166108fe6114c7565b73ffffffffffffffffffffffffffffffffffffffff16148061092d575061092c816109276114c7565b6112d2565b5b61096c576040517f08c379a000000000000000000000000000000000000000000000000000000000815260040161096390612c29565b60405180910390fd5b61097683836114cf565b505050565b600a5481565b61099261098c6114c7565b82611588565b6109d1576040517f08c379a00000000000000000000000000000000000000000000000000000000081526004016109c890612cbb565b60405180910390fd5b6109dc83838361161d565b505050565b6109e9611916565b600960009054906101000a900460ff1615600960006101000a81548160ff021916908315150217905550565b610a3083838360405180602001604052806000815250611154565b505050565b600960009054906101000a900460ff1681565b600080610a5483611994565b9050600073ffffffffffffffffffffffffffffffffffffffff168173ffffffffffffffffffffffffffffffffffffffff1603610ac5576040517f08c379a0000000000000000000000000000000000000000000000000000000008152600401610abc90612d27565b60405180910390fd5b80915050919050565b60008073ffffffffffffffffffffffffffffffffffffffff168273ffffffffffffffffffffffffffffffffffffffff1603610b3e576040517f08c379a0000000000000000000000000000000000000000000000000000000008152600401610b3590612db9565b60405180910390fd5b600360008373ffffffffffffffffffffffffffffffffffffffff1673ffffffffffffffffffffffffffffffffffffffff168152602001908152602001600020549050919050565b610b8d611916565b610b9760006119d1565b565b610ba1611916565b600047905060006064604683610bb79190612e08565b610bc19190612e79565b905060006064601e84610bd49190612e08565b610bde9190612e79565b90506000600760009054906101000a900473ffffffffffffffffffffffffffffffffffffffff1673ffffffffffffffffffffffffffffffffffffffff1683604051610c2890612edb565b60006040518083038185875af1925050503d8060008114610c65576040519150601f19603f3d011682016040523d82523d6000602084013e610c6a565b606091505b505090506000600760009054906101000a900473ffffffffffffffffffffffffffffffffffffffff1673ffffffffffffffffffffffffffffffffffffffff1683604051610cb690612edb565b60006040518083038185875af1925050503d8060008114610cf3576040519150601f19603f3d011682016040523d82523d6000602084013e610cf8565b606091505b50509050818015610d065750805b610d45576040517f08c379a0000000000000000000000000000000000000000000000000000000008152600401610d3c90612f3c565b60405180910390fd5b5050505050565b6000600660009054906101000a900473ffffffffffffffffffffffffffffffffffffffff16905090565b600a81565b610d83611916565b8060088190555050565b606060018054610d9c90612af4565b80601f0160208091040260200160405190810160405280929190818152602001828054610dc890612af4565b8015610e155780601f10610dea57610100808354040283529160200191610e15565b820191906000526020600020905b815481529060010190602001808311610df857829003601f168201915b5050505050905090565b600c8054610e2c90612af4565b80601f0160208091040260200160405190810160405280929190818152602001828054610e5890612af4565b8015610ea55780601f10610e7a57610100808354040283529160200191610ea5565b820191906000526020600020905b815481529060010190602001808311610e8857829003601f168201915b505050505081565b60085481565b600960009054906101000a900460ff16610f02576040517f08c379a0000000000000000000000000000000000000000000000000000000008152600401610ef990612fa8565b60405180910390fd5b600a811115610f46576040517f08c379a0000000000000000000000000000000000000000000000000000000008152600401610f3d9061303a565b60405180910390fd5b600a81600b60003373ffffffffffffffffffffffffffffffffffffffff1673ffffffffffffffffffffffffffffffffffffffff16815260200190815260200160002054610f93919061305a565b1115610fd4576040517f08c379a0000000000000000000000000000000000000000000000000000000008152600401610fcb906130da565b60405180910390fd5b6000600a5490506127108282610fea919061305a565b111561102b576040517f08c379a000000000000000000000000000000000000000000000000000000000815260040161102290613146565b60405180910390fd5b346008548361103a9190612e08565b111561107b576040517f08c379a0000000000000000000000000000000000000000000000000000000008152600401611072906131b2565b60405180910390fd5b6000600190505b8281116110af5761109e338284611099919061305a565b611a97565b806110a8906131d2565b9050611082565b5081600b60003373ffffffffffffffffffffffffffffffffffffffff1673ffffffffffffffffffffffffffffffffffffffff16815260200190815260200160002060008282546110ff919061305a565b9250508190555081600a6000828254611118919061305a565b925050819055505050565b61112b611916565b80600c908161113a91906133c6565b5050565b6111506111496114c7565b8383611ab5565b5050565b61116561115f6114c7565b83611588565b6111a4576040517f08c379a000000000000000000000000000000000000000000000000000000000815260040161119b90612cbb565b60405180910390fd5b6111b084848484611c21565b50505050565b600760009054906101000a900473ffffffffffffffffffffffffffffffffffffffff1681565b60606111e78261147c565b60006111f1611c7d565b90506000815111611211576040518060200160405280600081525061123c565b8061121b84611c94565b60405160200161122c9291906134d4565b6040516020818303038152906040525b915050919050565b600d805461125190612af4565b80601f016020809104026020016040519081016040528092919081815260200182805461127d90612af4565b80156112ca5780601f1061129f576101008083540402835291602001916112ca565b820191906000526020600020905b8154815290600101906020018083116112ad57829003601f168201915b505050505081565b6000600560008473ffffffffffffffffffffffffffffffffffffffff1673ffffffffffffffffffffffffffffffffffffffff16815260200190815260200160002060008373ffffffffffffffffffffffffffffffffffffffff1673ffffffffffffffffffffffffffffffffffffffff16815260200190815260200160002060009054906101000a900460ff16905092915050565b61136e611916565b600073ffffffffffffffffffffffffffffffffffffffff168173ffffffffffffffffffffffffffffffffffffffff16036113dd576040517f08c379a00000000000000000000000000000000000000000000000000000000081526004016113d49061356a565b60405180910390fd5b6113e6816119d1565b50565b61271081565b6000808273ffffffffffffffffffffffffffffffffffffffff163b119050919050565b60007f01ffc9a7000000000000000000000000000000000000000000000000000000007bffffffffffffffffffffffffffffffffffffffffffffffffffffffff1916827bffffffffffffffffffffffffffffffffffffffffffffffffffffffff1916149050919050565b61148581611d62565b6114c4576040517f08c379a00000000000000000000000000000000000000000000000000000000081526004016114bb90612d27565b60405180910390fd5b50565b600033905090565b816004600083815260200190815260200160002060006101000a81548173ffffffffffffffffffffffffffffffffffffffff021916908373ffffffffffffffffffffffffffffffffffffffff160217905550808273ffffffffffffffffffffffffffffffffffffffff1661154283610a48565b73ffffffffffffffffffffffffffffffffffffffff167f8c5be1e5ebec7d5bd14f71427d1e84f3dd0314c0f7b2291e5b200ac8c7c3b92560405160405180910390a45050565b60008061159483610a48565b90508073ffffffffffffffffffffffffffffffffffffffff168473ffffffffffffffffffffffffffffffffffffffff1614806115d657506115d581856112d2565b5b8061161457508373ffffffffffffffffffffffffffffffffffffffff166115fc8461081e565b73ffffffffffffffffffffffffffffffffffffffff16145b91505092915050565b8273ffffffffffffffffffffffffffffffffffffffff1661163d82610a48565b73ffffffffffffffffffffffffffffffffffffffff1614611693576040517f08c379a000000000000000000000000000000000000000000000000000000000815260040161168a906135fc565b60405180910390fd5b600073ffffffffffffffffffffffffffffffffffffffff168273ffffffffffffffffffffffffffffffffffffffff1603611702576040517f08c379a00000000000000000000000000000000000000000000000000000000081526004016116f99061368e565b60405180910390fd5b61170f8383836001611da3565b8273ffffffffffffffffffffffffffffffffffffffff1661172f82610a48565b73ffffffffffffffffffffffffffffffffffffffff1614611785576040517f08c379a000000000000000000000000000000000000000000000000000000000815260040161177c906135fc565b60405180910390fd5b6004600082815260200190815260200160002060006101000a81549073ffffffffffffffffffffffffffffffffffffffff02191690556001600360008573ffffffffffffffffffffffffffffffffffffffff1673ffffffffffffffffffffffffffffffffffffffff168152602001908152602001600020600082825403925050819055506001600360008473ffffffffffffffffffffffffffffffffffffffff1673ffffffffffffffffffffffffffffffffffffffff16815260200190815260200160002060008282540192505081905550816002600083815260200190815260200160002060006101000a81548173ffffffffffffffffffffffffffffffffffffffff021916908373ffffffffffffffffffffffffffffffffffffffff160217905550808273ffffffffffffffffffffffffffffffffffffffff168473ffffffffffffffffffffffffffffffffffffffff167fddf252ad1be2c89b69c2b068fc378daa952ba7f163c4a11628f55a4df523b3ef60405160405180910390a46119118383836001611ec9565b505050565b61191e6114c7565b73ffffffffffffffffffffffffffffffffffffffff1661193c610d4c565b73ffffffffffffffffffffffffffffffffffffffff1614611992576040517f08c379a0000000000000000000000000000000000000000000000000000000008152600401611989906136fa565b60405180910390fd5b565b60006002600083815260200190815260200160002060009054906101000a900473ffffffffffffffffffffffffffffffffffffffff169050919050565b6000600660009054906101000a900473ffffffffffffffffffffffffffffffffffffffff16905081600660006101000a81548173ffffffffffffffffffffffffffffffffffffffff021916908373ffffffffffffffffffffffffffffffffffffffff1602179055508173ffffffffffffffffffffffffffffffffffffffff168173ffffffffffffffffffffffffffffffffffffffff167f8be0079c531659141344cd1fd0a4f28419497f9722a3daafe3b4186f6b6457e060405160405180910390a35050565b611ab1828260405180602001604052806000815250611ecf565b5050565b8173ffffffffffffffffffffffffffffffffffffffff168373ffffffffffffffffffffffffffffffffffffffff1603611b23576040517f08c379a0000000000000000000000000000000000000000000000000000000008152600401611b1a90613766565b60405180910390fd5b80600560008573ffffffffffffffffffffffffffffffffffffffff1673ffffffffffffffffffffffffffffffffffffffff16815260200190815260200160002060008473ffffffffffffffffffffffffffffffffffffffff1673ffffffffffffffffffffffffffffffffffffffff16815260200190815260200160002060006101000a81548160ff0219169083151502179055508173ffffffffffffffffffffffffffffffffffffffff168373ffffffffffffffffffffffffffffffffffffffff167f17307eab39ab6107e8899845ad3d59bd9653f200f220920489ca2b5937696c3183604051611c1491906124d5565b60405180910390a3505050565b611c2c84848461161d565b611c3884848484611f2a565b611c77576040517f08c379a0000000000000000000000000000000000000000000000000000000008152600401611c6e906137f8565b60405180910390fd5b50505050565b606060405180602001604052806000815250905090565b606060006001611ca3846120b1565b01905060008167ffffffffffffffff811115611cc257611cc1612781565b5b6040519080825280601f01601f191660200182016040528015611cf45781602001600182028036833780820191505090505b509050600082602001820190505b600115611d57578080600190039150507f3031323334353637383961626364656600000000000000000000000000000000600a86061a8153600a8581611d4b57611d4a612e4a565b5b04945060008503611d02575b819350505050919050565b60008073ffffffffffffffffffffffffffffffffffffffff16611d8483611994565b73ffffffffffffffffffffffffffffffffffffffff1614159050919050565b6001811115611ec357600073ffffffffffffffffffffffffffffffffffffffff168473ffffffffffffffffffffffffffffffffffffffff1614611e375780600360008673ffffffffffffffffffffffffffffffffffffffff1673ffffffffffffffffffffffffffffffffffffffff1681526020019081526020016000206000828254611e2f9190613818565b925050819055505b600073ffffffffffffffffffffffffffffffffffffffff168373ffffffffffffffffffffffffffffffffffffffff1614611ec25780600360008573ffffffffffffffffffffffffffffffffffffffff1673ffffffffffffffffffffffffffffffffffffffff1681526020019081526020016000206000828254611eba919061305a565b925050819055505b5b50505050565b50505050565b611ed98383612204565b611ee66000848484611f2a565b611f25576040517f08c379a0000000000000000000000000000000000000000000000000000000008152600401611f1c906137f8565b60405180910390fd5b505050565b6000611f4b8473ffffffffffffffffffffffffffffffffffffffff166113ef565b156120a4578373ffffffffffffffffffffffffffffffffffffffff1663150b7a02611f746114c7565b8786866040518563ffffffff1660e01b8152600401611f9694939291906138a1565b6020604051808303816000875af1925050508015611fd257506040513d601f19601f82011682018060405250810190611fcf9190613902565b60015b612054573d8060008114612002576040519150601f19603f3d011682016040523d82523d6000602084013e612007565b606091505b50600081510361204c576040517f08c379a0000000000000000000000000000000000000000000000000000000008152600401612043906137f8565b60405180910390fd5b805181602001fd5b63150b7a0260e01b7bffffffffffffffffffffffffffffffffffffffffffffffffffffffff1916817bffffffffffffffffffffffffffffffffffffffffffffffffffffffff1916149150506120a9565b600190505b949350505050565b600080600090507a184f03e93ff9f4daa797ed6e38ed64bf6a1f010000000000000000831061210f577a184f03e93ff9f4daa797ed6e38ed64bf6a1f010000000000000000838161210557612104612e4a565b5b0492506040810190505b6d04ee2d6d415b85acef8100000000831061214c576d04ee2d6d415b85acef8100000000838161214257612141612e4a565b5b0492506020810190505b662386f26fc10000831061217b57662386f26fc10000838161217157612170612e4a565b5b0492506010810190505b6305f5e10083106121a4576305f5e100838161219a57612199612e4a565b5b0492506008810190505b61271083106121c95761271083816121bf576121be612e4a565b5b0492506004810190505b606483106121ec57606483816121e2576121e1612e4a565b5b0492506002810190505b600a83106121fb576001810190505b80915050919050565b600073ffffffffffffffffffffffffffffffffffffffff168273ffffffffffffffffffffffffffffffffffffffff1603612273576040517f08c379a000000000000000000000000000000000000000000000000000000000815260040161226a9061397b565b60405180910390fd5b61227c81611d62565b156122bc576040517f08c379a00000000000000000000000000000000000000000000000000000000081526004016122b3906139e7565b60405180910390fd5b6122ca600083836001611da3565b6122d381611d62565b15612313576040517f08c379a000000000000000000000000000000000000000000000000000000000815260040161230a906139e7565b60405180910390fd5b6001600360008473ffffffffffffffffffffffffffffffffffffffff1673ffffffffffffffffffffffffffffffffffffffff16815260200190815260200160002060008282540192505081905550816002600083815260200190815260200160002060006101000a81548173ffffffffffffffffffffffffffffffffffffffff021916908373ffffffffffffffffffffffffffffffffffffffff160217905550808273ffffffffffffffffffffffffffffffffffffffff16600073ffffffffffffffffffffffffffffffffffffffff167fddf252ad1be2c89b69c2b068fc378daa952ba7f163c4a11628f55a4df523b3ef60405160405180910390a461241d600083836001611ec9565b5050565b6000604051905090565b600080fd5b600080fd5b60007fffffffff0000000000000000000000000000000000000000000000000000000082169050919050565b61246a81612435565b811461247557600080fd5b50565b60008135905061248781612461565b92915050565b6000602082840312156124a3576124a261242b565b5b60006124b184828501612478565b91505092915050565b60008115159050919050565b6124cf816124ba565b82525050565b60006020820190506124ea60008301846124c6565b92915050565b600081519050919050565b600082825260208201905092915050565b60005b8381101561252a57808201518184015260208101905061250f565b60008484015250505050565b6000601f19601f8301169050919050565b6000612552826124f0565b61255c81856124fb565b935061256c81856020860161250c565b61257581612536565b840191505092915050565b6000602082019050818103600083015261259a8184612547565b905092915050565b6000819050919050565b6125b5816125a2565b81146125c057600080fd5b50565b6000813590506125d2816125ac565b92915050565b6000602082840312156125ee576125ed61242b565b5b60006125fc848285016125c3565b91505092915050565b600073ffffffffffffffffffffffffffffffffffffffff82169050919050565b600061263082612605565b9050919050565b61264081612625565b82525050565b600060208201905061265b6000830184612637565b92915050565b61266a81612625565b811461267557600080fd5b50565b60008135905061268781612661565b92915050565b600080604083850312156126a4576126a361242b565b5b60006126b285828601612678565b92505060206126c3858286016125c3565b9150509250929050565b6126d6816125a2565b82525050565b60006020820190506126f160008301846126cd565b92915050565b6000806000606084860312156127105761270f61242b565b5b600061271e86828701612678565b935050602061272f86828701612678565b9250506040612740868287016125c3565b9150509250925092565b6000602082840312156127605761275f61242b565b5b600061276e84828501612678565b91505092915050565b600080fd5b600080fd5b7f4e487b7100000000000000000000000000000000000000000000000000000000600052604160045260246000fd5b6127b982612536565b810181811067ffffffffffffffff821117156127d8576127d7612781565b5b80604052505050565b60006127eb612421565b90506127f782826127b0565b919050565b600067ffffffffffffffff82111561281757612816612781565b5b61282082612536565b9050602081019050919050565b82818337600083830152505050565b600061284f61284a846127fc565b6127e1565b90508281526020810184848401111561286b5761286a61277c565b5b61287684828561282d565b509392505050565b600082601f83011261289357612892612777565b5b81356128a384826020860161283c565b91505092915050565b6000602082840312156128c2576128c161242b565b5b600082013567ffffffffffffffff8111156128e0576128df612430565b5b6128ec8482850161287e565b91505092915050565b6128fe816124ba565b811461290957600080fd5b50565b60008135905061291b816128f5565b92915050565b600080604083850312156129385761293761242b565b5b600061294685828601612678565b92505060206129578582860161290c565b9150509250929050565b600067ffffffffffffffff82111561297c5761297b612781565b5b61298582612536565b9050602081019050919050565b60006129a56129a084612961565b6127e1565b9050828152602081018484840111156129c1576129c061277c565b5b6129cc84828561282d565b509392505050565b600082601f8301126129e9576129e8612777565b5b81356129f9848260208601612992565b91505092915050565b60008060008060808587031215612a1c57612a1b61242b565b5b6000612a2a87828801612678565b9450506020612a3b87828801612678565b9350506040612a4c878288016125c3565b925050606085013567ffffffffffffffff811115612a6d57612a6c612430565b5b612a79878288016129d4565b91505092959194509250565b60008060408385031215612a9c57612a9b61242b565b5b6000612aaa85828601612678565b9250506020612abb85828601612678565b9150509250929050565b7f4e487b7100000000000000000000000000000000000000000000000000000000600052602260045260246000fd5b60006002820490506001821680612b0c57607f821691505b602082108103612b1f57612b1e612ac5565b5b50919050565b7f4552433732313a20617070726f76616c20746f2063757272656e74206f776e6560008201527f7200000000000000000000000000000000000000000000000000000000000000602082015250565b6000612b816021836124fb565b9150612b8c82612b25565b604082019050919050565b60006020820190508181036000830152612bb081612b74565b9050919050565b7f4552433732313a20617070726f76652063616c6c6572206973206e6f7420746f60008201527f6b656e206f776e6572206f7220617070726f76656420666f7220616c6c000000602082015250565b6000612c13603d836124fb565b9150612c1e82612bb7565b604082019050919050565b60006020820190508181036000830152612c4281612c06565b9050919050565b7f4552433732313a2063616c6c6572206973206e6f7420746f6b656e206f776e6560008201527f72206f7220617070726f76656400000000000000000000000000000000000000602082015250565b6000612ca5602d836124fb565b9150612cb082612c49565b604082019050919050565b60006020820190508181036000830152612cd481612c98565b9050919050565b7f4552433732313a20696e76616c696420746f6b656e2049440000000000000000600082015250565b6000612d116018836124fb565b9150612d1c82612cdb565b602082019050919050565b60006020820190508181036000830152612d4081612d04565b9050919050565b7f4552433732313a2061646472657373207a65726f206973206e6f74206120766160008201527f6c6964206f776e65720000000000000000000000000000000000000000000000602082015250565b6000612da36029836124fb565b9150612dae82612d47565b604082019050919050565b60006020820190508181036000830152612dd281612d96565b9050919050565b7f4e487b7100000000000000000000000000000000000000000000000000000000600052601160045260246000fd5b6000612e13826125a2565b9150612e1e836125a2565b9250828202612e2c816125a2565b91508282048414831517612e4357612e42612dd9565b5b5092915050565b7f4e487b7100000000000000000000000000000000000000000000000000000000600052601260045260246000fd5b6000612e84826125a2565b9150612e8f836125a2565b925082612e9f57612e9e612e4a565b5b828204905092915050565b600081905092915050565b50565b6000612ec5600083612eaa565b9150612ed082612eb5565b600082019050919050565b6000612ee682612eb8565b9150819050919050565b7f5472616e73666572206661696c65642e00000000000000000000000000000000600082015250565b6000612f266010836124fb565b9150612f3182612ef0565b602082019050919050565b60006020820190508181036000830152612f5581612f19565b9050919050565b7f5468652073616c65206973207061757365642e00000000000000000000000000600082015250565b6000612f926013836124fb565b9150612f9d82612f5c565b602082019050919050565b60006020820190508181036000830152612fc181612f85565b9050919050565b7f596f752063616e6e6f74206d696e742074686174206d616e7920696e206f6e6560008201527f207472616e73616374696f6e2e00000000000000000000000000000000000000602082015250565b6000613024602d836124fb565b915061302f82612fc8565b604082019050919050565b6000602082019050818103600083015261305381613017565b9050919050565b6000613065826125a2565b9150613070836125a2565b925082820190508082111561308857613087612dd9565b5b92915050565b7f596f752063616e6e6f74206d696e742074686174206d616e7920746f74616c2e600082015250565b60006130c46020836124fb565b91506130cf8261308e565b602082019050919050565b600060208201905081810360008301526130f3816130b7565b9050919050565b7f4578636565647320746f74616c20737570706c792e0000000000000000000000600082015250565b60006131306015836124fb565b915061313b826130fa565b602082019050919050565b6000602082019050818103600083015261315f81613123565b9050919050565b7f496e73756666696369656e742066756e64732e00000000000000000000000000600082015250565b600061319c6013836124fb565b91506131a782613166565b602082019050919050565b600060208201905081810360008301526131cb8161318f565b9050919050565b60006131dd826125a2565b91507fffffffffffffffffffffffffffffffffffffffffffffffffffffffffffffffff820361320f5761320e612dd9565b5b600182019050919050565b60008190508160005260206000209050919050565b60006020601f8301049050919050565b600082821b905092915050565b60006008830261327c7fffffffffffffffffffffffffffffffffffffffffffffffffffffffffffffffff8261323f565b613286868361323f565b95508019841693508086168417925050509392505050565b6000819050919050565b60006132c36132be6132b9846125a2565b61329e565b6125a2565b9050919050565b6000819050919050565b6132dd836132a8565b6132f16132e9826132ca565b84845461324c565b825550505050565b600090565b6133066132f9565b6133118184846132d4565b505050565b5b818110156133355761332a6000826132fe565b600181019050613317565b5050565b601f82111561337a5761334b8161321a565b6133548461322f565b81016020851015613363578190505b61337761336f8561322f565b830182613316565b50505b505050565b600082821c905092915050565b600061339d6000198460080261337f565b1980831691505092915050565b60006133b6838361338c565b9150826002028217905092915050565b6133cf826124f0565b67ffffffffffffffff8111156133e8576133e7612781565b5b6133f28254612af4565b6133fd828285613339565b600060209050601f831160018114613430576000841561341e578287015190505b61342885826133aa565b865550613490565b601f19841661343e8661321a565b60005b8281101561346657848901518255600182019150602085019450602081019050613441565b86831015613483578489015161347f601f89168261338c565b8355505b6001600288020188555050505b505050505050565b600081905092915050565b60006134ae826124f0565b6134b88185613498565b93506134c881856020860161250c565b80840191505092915050565b60006134e082856134a3565b91506134ec82846134a3565b91508190509392505050565b7f4f776e61626c653a206e6577206f776e657220697320746865207a65726f206160008201527f6464726573730000000000000000000000000000000000000000000000000000602082015250565b60006135546026836124fb565b915061355f826134f8565b604082019050919050565b6000602082019050818103600083015261358381613547565b9050919050565b7f4552433732313a207472616e736665722066726f6d20696e636f72726563742060008201527f6f776e6572000000000000000000000000000000000000000000000000000000602082015250565b60006135e66025836124fb565b91506135f18261358a565b604082019050919050565b60006020820190508181036000830152613615816135d9565b9050919050565b7f4552433732313a207472616e7366657220746f20746865207a65726f2061646460008201527f7265737300000000000000000000000000000000000000000000000000000000602082015250565b60006136786024836124fb565b91506136838261361c565b604082019050919050565b600060208201905081810360008301526136a78161366b565b9050919050565b7f4f776e61626c653a2063616c6c6572206973206e6f7420746865206f776e6572600082015250565b60006136e46020836124fb565b91506136ef826136ae565b602082019050919050565b60006020820190508181036000830152613713816136d7565b9050919050565b7f4552433732313a20617070726f766520746f2063616c6c657200000000000000600082015250565b60006137506019836124fb565b915061375b8261371a565b602082019050919050565b6000602082019050818103600083015261377f81613743565b9050919050565b7f4552433732313a207472616e7366657220746f206e6f6e20455243373231526560008201527f63656976657220696d706c656d656e7465720000000000000000000000000000602082015250565b60006137e26032836124fb565b91506137ed82613786565b604082019050919050565b60006020820190508181036000830152613811816137d5565b9050919050565b6000613823826125a2565b915061382e836125a2565b925082820390508181111561384657613845612dd9565b5b92915050565b600081519050919050565b600082825260208201905092915050565b60006138738261384c565b61387d8185613857565b935061388d81856020860161250c565b61389681612536565b840191505092915050565b60006080820190506138b66000830187612637565b6138c36020830186612637565b6138d060408301856126cd565b81810360608301526138e28184613868565b905095945050505050565b6000815190506138fc81612461565b92915050565b6000602082840312156139185761391761242b565b5b6000613926848285016138ed565b91505092915050565b7f4552433732313a206d696e7420746f20746865207a65726f2061646472657373600082015250565b60006139656020836124fb565b91506139708261392f565b602082019050919050565b6000602082019050818103600083015261399481613958565b9050919050565b7f4552433732313a20746f6b656e20616c7265616479206d696e74656400000000600082015250565b60006139d1601c836124fb565b91506139dc8261399b565b602082019050919050565b60006020820190508181036000830152613a00816139c4565b905091905056fea26469706673582212204d3bf6980f36558207c8d2c0d51101d713798e35cb688bbc173ccb8a735d7e9f64736f6c63430008110033",
  "linkReferences": {},
  "deployedLinkReferences": {}
}