{
  "_format": "hh-sol-artifact-1",
  "contractName": "HandpickedToken",
  "sourceName": "contracts/trade.sol",
  "abi": [
    {
      "inputs": [
        {
          "internalType": "uint256",
          "name": "cap",
          "type": "uint256"
        },
        {
          "internalType": "uint256",
          "name": "reward",
          "type": "uint256"
        },
        {
          "internalType": "uint256",
          "name": "earnedTokens",
          "type": "uint256"
        }
      ],
      "stateMutability": "nonpayable",
      "type": "constructor"
    },
    {
      "anonymous": false,
      "inputs": [
        {
          "indexed": true,
          "internalType": "address",
          "name": "owner",
          "type": "address"
        },
        {
          "indexed": true,
          "internalType": "address",
          "name": "spender",
          "type": "address"
        },
        {
          "indexed": false,
          "internalType": "uint256",
          "name": "value",
          "type": "uint256"
        }
      ],
      "name": "Approval",
      "type": "event"
    },
    {
      "anonymous": false,
      "inputs": [
        {
          "indexed": true,
          "internalType": "address",
          "name": "from",
          "type": "address"
        },
        {
          "indexed": true,
          "internalType": "address",
          "name": "to",
          "type": "address"
        },
        {
          "indexed": false,
          "internalType": "uint256",
          "name": "value",
          "type": "uint256"
        }
      ],
      "name": "Transfer",
      "type": "event"
    },
    {
      "inputs": [
        {
          "internalType": "address",
          "name": "owner",
          "type": "address"
        },
        {
          "internalType": "address",
          "name": "spender",
          "type": "address"
        }
      ],
      "name": "allowance",
      "outputs": [
        {
          "internalType": "uint256",
          "name": "",
          "type": "uint256"
        }
      ],
      "stateMutability": "view",
      "type": "function"
    },
    {
      "inputs": [
        {
          "internalType": "address",
          "name": "spender",
          "type": "address"
        },
        {
          "internalType": "uint256",
          "name": "amount",
          "type": "uint256"
        }
      ],
      "name": "approve",
      "outputs": [
        {
          "internalType": "bool",
          "name": "",
          "type": "bool"
        }
      ],
      "stateMutability": "nonpayable",
      "type": "function"
    },
    {
      "inputs": [
        {
          "internalType": "address",
          "name": "account",
          "type": "address"
        }
      ],
      "name": "balanceOf",
      "outputs": [
        {
          "internalType": "uint256",
          "name": "",
          "type": "uint256"
        }
      ],
      "stateMutability": "view",
      "type": "function"
    },
    {
      "inputs": [],
      "name": "blockReward",
      "outputs": [
        {
          "internalType": "uint256",
          "name": "",
          "type": "uint256"
        }
      ],
      "stateMutability": "view",
      "type": "function"
    },
    {
      "inputs": [],
      "name": "cap",
      "outputs": [
        {
          "internalType": "uint256",
          "name": "",
          "type": "uint256"
        }
      ],
      "stateMutability": "view",
      "type": "function"
    },
    {
      "inputs": [],
      "name": "decimals",
      "outputs": [
        {
          "internalType": "uint8",
          "name": "",
          "type": "uint8"
        }
      ],
      "stateMutability": "view",
      "type": "function"
    },
    {
      "inputs": [
        {
          "internalType": "address",
          "name": "spender",
          "type": "address"
        },
        {
          "internalType": "uint256",
          "name": "subtractedValue",
          "type": "uint256"
        }
      ],
      "name": "decreaseAllowance",
      "outputs": [
        {
          "internalType": "bool",
          "name": "",
          "type": "bool"
        }
      ],
      "stateMutability": "nonpayable",
      "type": "function"
    },
    {
      "inputs": [],
      "name": "destroy",
      "outputs": [],
      "stateMutability": "nonpayable",
      "type": "function"
    },
    {
      "inputs": [
        {
          "internalType": "address",
          "name": "spender",
          "type": "address"
        },
        {
          "internalType": "uint256",
          "name": "addedValue",
          "type": "uint256"
        }
      ],
      "name": "increaseAllowance",
      "outputs": [
        {
          "internalType": "bool",
          "name": "",
          "type": "bool"
        }
      ],
      "stateMutability": "nonpayable",
      "type": "function"
    },
    {
      "inputs": [],
      "name": "name",
      "outputs": [
        {
          "internalType": "string",
          "name": "",
          "type": "string"
        }
      ],
      "stateMutability": "view",
      "type": "function"
    },
    {
      "inputs": [],
      "name": "owner",
      "outputs": [
        {
          "internalType": "address payable",
          "name": "",
          "type": "address"
        }
      ],
      "stateMutability": "view",
      "type": "function"
    },
    {
      "inputs": [
        {
          "internalType": "uint256",
          "name": "reward",
          "type": "uint256"
        }
      ],
      "name": "setBlockReward",
      "outputs": [],
      "stateMutability": "nonpayable",
      "type": "function"
    },
    {
      "inputs": [],
      "name": "symbol",
      "outputs": [
        {
          "internalType": "string",
          "name": "",
          "type": "string"
        }
      ],
      "stateMutability": "view",
      "type": "function"
    },
    {
      "inputs": [],
      "name": "totalSupply",
      "outputs": [
        {
          "internalType": "uint256",
          "name": "",
          "type": "uint256"
        }
      ],
      "stateMutability": "view",
      "type": "function"
    },
    {
      "inputs": [
        {
          "internalType": "address",
          "name": "to",
          "type": "address"
        },
        {
          "internalType": "uint256",
          "name": "amount",
          "type": "uint256"
        }
      ],
      "name": "transfer",
      "outputs": [
        {
          "internalType": "bool",
          "name": "",
          "type": "bool"
        }
      ],
      "stateMutability": "nonpayable",
      "type": "function"
    },
    {
      "inputs": [
        {
          "internalType": "address",
          "name": "from",
          "type": "address"
        },
        {
          "internalType": "address",
          "name": "to",
          "type": "address"
        },
        {
          "internalType": "uint256",
          "name": "amount",
          "type": "uint256"
        }
      ],
      "name": "transferFrom",
      "outputs": [
        {
          "internalType": "bool",
          "name": "",
          "type": "bool"
        }
      ],
      "stateMutability": "nonpayable",
      "type": "function"
    }
  ],
  "bytecode": "0x60a06040523480156200001157600080fd5b50604051620028383803806200283883398181016040528101906200003791906200056f565b620000476200021c60201b60201c565b600a6200005591906200075b565b83620000629190620007ac565b6040518060400160405280601081526020017f48616e647069636b656420546f6b656e000000000000000000000000000000008152506040518060400160405280600381526020017f48505400000000000000000000000000000000000000000000000000000000008152508160039081620000df919062000a67565b508060049081620000f1919062000a67565b505050600081116200013a576040517f08c379a0000000000000000000000000000000000000000000000000000000008152600401620001319062000baf565b60405180910390fd5b80608081815250505033600560006101000a81548173ffffffffffffffffffffffffffffffffffffffff021916908373ffffffffffffffffffffffffffffffffffffffff160217905550620001e2600560009054906101000a900473ffffffffffffffffffffffffffffffffffffffff16620001bb6200021c60201b60201c565b600a620001c991906200075b565b83620001d69190620007ac565b6200022560201b60201c565b620001f26200021c60201b60201c565b600a6200020091906200075b565b826200020d9190620007ac565b60068190555050505062000d1e565b60006012905090565b62000235620002b660201b60201c565b816200024b620002c060201b620004081760201c565b62000257919062000bd1565b11156200029b576040517f08c379a0000000000000000000000000000000000000000000000000000000008152600401620002929062000c5c565b60405180910390fd5b620002b28282620002ca60201b6200084d1760201c565b5050565b6000608051905090565b6000600254905090565b600073ffffffffffffffffffffffffffffffffffffffff168273ffffffffffffffffffffffffffffffffffffffff16036200033c576040517f08c379a0000000000000000000000000000000000000000000000000000000008152600401620003339062000cce565b60405180910390fd5b62000350600083836200043760201b60201c565b806002600082825462000364919062000bd1565b92505081905550806000808473ffffffffffffffffffffffffffffffffffffffff1673ffffffffffffffffffffffffffffffffffffffff168152602001908152602001600020600082825401925050819055508173ffffffffffffffffffffffffffffffffffffffff16600073ffffffffffffffffffffffffffffffffffffffff167fddf252ad1be2c89b69c2b068fc378daa952ba7f163c4a11628f55a4df523b3ef8360405162000417919062000d01565b60405180910390a362000433600083836200050f60201b60201c565b5050565b600073ffffffffffffffffffffffffffffffffffffffff168373ffffffffffffffffffffffffffffffffffffffff1614158015620004a157504173ffffffffffffffffffffffffffffffffffffffff168273ffffffffffffffffffffffffffffffffffffffff1614155b8015620004db5750600073ffffffffffffffffffffffffffffffffffffffff164173ffffffffffffffffffffffffffffffffffffffff1614155b15620004f257620004f16200051460201b60201c565b5b6200050a8383836200052a60201b620009a31760201c565b505050565b505050565b62000528416006546200022560201b60201c565b565b505050565b600080fd5b6000819050919050565b620005498162000534565b81146200055557600080fd5b50565b60008151905062000569816200053e565b92915050565b6000806000606084860312156200058b576200058a6200052f565b5b60006200059b8682870162000558565b9350506020620005ae8682870162000558565b9250506040620005c18682870162000558565b9150509250925092565b7f4e487b7100000000000000000000000000000000000000000000000000000000600052601160045260246000fd5b60008160011c9050919050565b6000808291508390505b60018511156200065957808604811115620006315762000630620005cb565b5b6001851615620006415780820291505b80810290506200065185620005fa565b945062000611565b94509492505050565b60008262000674576001905062000747565b8162000684576000905062000747565b81600181146200069d5760028114620006a857620006de565b600191505062000747565b60ff841115620006bd57620006bc620005cb565b5b8360020a915084821115620006d757620006d6620005cb565b5b5062000747565b5060208310610133831016604e8410600b8410161715620007185782820a905083811115620007125762000711620005cb565b5b62000747565b62000727848484600162000607565b92509050818404811115620007415762000740620005cb565b5b81810290505b9392505050565b600060ff82169050919050565b6000620007688262000534565b915062000775836200074e565b9250620007a47fffffffffffffffffffffffffffffffffffffffffffffffffffffffffffffffff848462000662565b905092915050565b6000620007b98262000534565b9150620007c68362000534565b9250828202620007d68162000534565b91508282048414831517620007f057620007ef620005cb565b5b5092915050565b600081519050919050565b7f4e487b7100000000000000000000000000000000000000000000000000000000600052604160045260246000fd5b7f4e487b7100000000000000000000000000000000000000000000000000000000600052602260045260246000fd5b600060028204905060018216806200087957607f821691505b6020821081036200088f576200088e62000831565b5b50919050565b60008190508160005260206000209050919050565b60006020601f8301049050919050565b600082821b905092915050565b600060088302620008f97fffffffffffffffffffffffffffffffffffffffffffffffffffffffffffffffff82620008ba565b620009058683620008ba565b95508019841693508086168417925050509392505050565b6000819050919050565b600062000948620009426200093c8462000534565b6200091d565b62000534565b9050919050565b6000819050919050565b620009648362000927565b6200097c62000973826200094f565b848454620008c7565b825550505050565b600090565b6200099362000984565b620009a081848462000959565b505050565b5b81811015620009c857620009bc60008262000989565b600181019050620009a6565b5050565b601f82111562000a1757620009e18162000895565b620009ec84620008aa565b81016020851015620009fc578190505b62000a1462000a0b85620008aa565b830182620009a5565b50505b505050565b600082821c905092915050565b600062000a3c6000198460080262000a1c565b1980831691505092915050565b600062000a57838362000a29565b9150826002028217905092915050565b62000a7282620007f7565b67ffffffffffffffff81111562000a8e5762000a8d62000802565b5b62000a9a825462000860565b62000aa7828285620009cc565b600060209050601f83116001811462000adf576000841562000aca578287015190505b62000ad6858262000a49565b86555062000b46565b601f19841662000aef8662000895565b60005b8281101562000b195784890151825560018201915060208501945060208101905062000af2565b8683101562000b39578489015162000b35601f89168262000a29565b8355505b6001600288020188555050505b505050505050565b600082825260208201905092915050565b7f45524332304361707065643a2063617020697320300000000000000000000000600082015250565b600062000b9760158362000b4e565b915062000ba48262000b5f565b602082019050919050565b6000602082019050818103600083015262000bca8162000b88565b9050919050565b600062000bde8262000534565b915062000beb8362000534565b925082820190508082111562000c065762000c05620005cb565b5b92915050565b7f45524332304361707065643a2063617020657863656564656400000000000000600082015250565b600062000c4460198362000b4e565b915062000c518262000c0c565b602082019050919050565b6000602082019050818103600083015262000c778162000c35565b9050919050565b7f45524332303a206d696e7420746f20746865207a65726f206164647265737300600082015250565b600062000cb6601f8362000b4e565b915062000cc38262000c7e565b602082019050919050565b6000602082019050818103600083015262000ce98162000ca7565b9050919050565b62000cfb8162000534565b82525050565b600060208201905062000d18600083018462000cf0565b92915050565b608051611afe62000d3a60003960006105060152611afe6000f3fe608060405234801561001057600080fd5b50600436106101005760003560e01c8063395093511161009757806395d89b411161006657806395d89b411461029f578063a457c2d7146102bd578063a9059cbb146102ed578063dd62ed3e1461031d57610100565b8063395093511461021757806370a082311461024757806383197ef0146102775780638da5cb5b1461028157610100565b80631a18e707116100d35780631a18e7071461018f57806323b872dd146101ab578063313ce567146101db578063355274ea146101f957610100565b806306fdde0314610105578063095ea7b3146101235780630ac168a11461015357806318160ddd14610171575b600080fd5b61010d61034d565b60405161011a9190611048565b60405180910390f35b61013d60048036038101906101389190611103565b6103df565b60405161014a919061115e565b60405180910390f35b61015b610402565b6040516101689190611188565b60405180910390f35b610179610408565b6040516101869190611188565b60405180910390f35b6101a960048036038101906101a491906111a3565b610412565b005b6101c560048036038101906101c091906111d0565b6104ca565b6040516101d2919061115e565b60405180910390f35b6101e36104f9565b6040516101f0919061123f565b60405180910390f35b610201610502565b60405161020e9190611188565b60405180910390f35b610231600480360381019061022c9190611103565b61052a565b60405161023e919061115e565b60405180910390f35b610261600480360381019061025c919061125a565b610561565b60405161026e9190611188565b60405180910390f35b61027f6105a9565b005b610289610674565b60405161029691906112a8565b60405180910390f35b6102a761069a565b6040516102b49190611048565b60405180910390f35b6102d760048036038101906102d29190611103565b61072c565b6040516102e4919061115e565b60405180910390f35b61030760048036038101906103029190611103565b6107a3565b604051610314919061115e565b60405180910390f35b610337600480360381019061033291906112c3565b6107c6565b6040516103449190611188565b60405180910390f35b60606003805461035c90611332565b80601f016020809104026020016040519081016040528092919081815260200182805461038890611332565b80156103d55780601f106103aa576101008083540402835291602001916103d5565b820191906000526020600020905b8154815290600101906020018083116103b857829003601f168201915b5050505050905090565b6000806103ea6109a8565b90506103f78185856109b0565b600191505092915050565b60065481565b6000600254905090565b600560009054906101000a900473ffffffffffffffffffffffffffffffffffffffff1673ffffffffffffffffffffffffffffffffffffffff163373ffffffffffffffffffffffffffffffffffffffff16146104a2576040517f08c379a0000000000000000000000000000000000000000000000000000000008152600401610499906113d5565b60405180910390fd5b6104aa6104f9565b600a6104b69190611557565b816104c191906115a2565b60068190555050565b6000806104d56109a8565b90506104e2858285610b79565b6104ed858585610c05565b60019150509392505050565b60006012905090565b60007f0000000000000000000000000000000000000000000000000000000000000000905090565b6000806105356109a8565b905061055681858561054785896107c6565b61055191906115e4565b6109b0565b600191505092915050565b60008060008373ffffffffffffffffffffffffffffffffffffffff1673ffffffffffffffffffffffffffffffffffffffff168152602001908152602001600020549050919050565b600560009054906101000a900473ffffffffffffffffffffffffffffffffffffffff1673ffffffffffffffffffffffffffffffffffffffff163373ffffffffffffffffffffffffffffffffffffffff1614610639576040517f08c379a0000000000000000000000000000000000000000000000000000000008152600401610630906113d5565b60405180910390fd5b600560009054906101000a900473ffffffffffffffffffffffffffffffffffffffff1673ffffffffffffffffffffffffffffffffffffffff16ff5b600560009054906101000a900473ffffffffffffffffffffffffffffffffffffffff1681565b6060600480546106a990611332565b80601f01602080910402602001604051908101604052809291908181526020018280546106d590611332565b80156107225780601f106106f757610100808354040283529160200191610722565b820191906000526020600020905b81548152906001019060200180831161070557829003601f168201915b5050505050905090565b6000806107376109a8565b9050600061074582866107c6565b90508381101561078a576040517f08c379a00000000000000000000000000000000000000000000000000000000081526004016107819061168a565b60405180910390fd5b61079782868684036109b0565b60019250505092915050565b6000806107ae6109a8565b90506107bb818585610c05565b600191505092915050565b6000600160008473ffffffffffffffffffffffffffffffffffffffff1673ffffffffffffffffffffffffffffffffffffffff16815260200190815260200160002060008373ffffffffffffffffffffffffffffffffffffffff1673ffffffffffffffffffffffffffffffffffffffff16815260200190815260200160002054905092915050565b600073ffffffffffffffffffffffffffffffffffffffff168273ffffffffffffffffffffffffffffffffffffffff16036108bc576040517f08c379a00000000000000000000000000000000000000000000000000000000081526004016108b3906116f6565b60405180910390fd5b6108c860008383610e7b565b80600260008282546108da91906115e4565b92505081905550806000808473ffffffffffffffffffffffffffffffffffffffff1673ffffffffffffffffffffffffffffffffffffffff168152602001908152602001600020600082825401925050819055508173ffffffffffffffffffffffffffffffffffffffff16600073ffffffffffffffffffffffffffffffffffffffff167fddf252ad1be2c89b69c2b068fc378daa952ba7f163c4a11628f55a4df523b3ef8360405161098b9190611188565b60405180910390a361099f60008383610f3b565b5050565b505050565b600033905090565b600073ffffffffffffffffffffffffffffffffffffffff168373ffffffffffffffffffffffffffffffffffffffff1603610a1f576040517f08c379a0000000000000000000000000000000000000000000000000000000008152600401610a1690611788565b60405180910390fd5b600073ffffffffffffffffffffffffffffffffffffffff168273ffffffffffffffffffffffffffffffffffffffff1603610a8e576040517f08c379a0000000000000000000000000000000000000000000000000000000008152600401610a859061181a565b60405180910390fd5b80600160008573ffffffffffffffffffffffffffffffffffffffff1673ffffffffffffffffffffffffffffffffffffffff16815260200190815260200160002060008473ffffffffffffffffffffffffffffffffffffffff1673ffffffffffffffffffffffffffffffffffffffff168152602001908152602001600020819055508173ffffffffffffffffffffffffffffffffffffffff168373ffffffffffffffffffffffffffffffffffffffff167f8c5be1e5ebec7d5bd14f71427d1e84f3dd0314c0f7b2291e5b200ac8c7c3b92583604051610b6c9190611188565b60405180910390a3505050565b6000610b8584846107c6565b90507fffffffffffffffffffffffffffffffffffffffffffffffffffffffffffffffff8114610bff5781811015610bf1576040517f08c379a0000000000000000000000000000000000000000000000000000000008152600401610be890611886565b60405180910390fd5b610bfe84848484036109b0565b5b50505050565b600073ffffffffffffffffffffffffffffffffffffffff168373ffffffffffffffffffffffffffffffffffffffff1603610c74576040517f08c379a0000000000000000000000000000000000000000000000000000000008152600401610c6b90611918565b60405180910390fd5b600073ffffffffffffffffffffffffffffffffffffffff168273ffffffffffffffffffffffffffffffffffffffff1603610ce3576040517f08c379a0000000000000000000000000000000000000000000000000000000008152600401610cda906119aa565b60405180910390fd5b610cee838383610e7b565b60008060008573ffffffffffffffffffffffffffffffffffffffff1673ffffffffffffffffffffffffffffffffffffffff16815260200190815260200160002054905081811015610d74576040517f08c379a0000000000000000000000000000000000000000000000000000000008152600401610d6b90611a3c565b60405180910390fd5b8181036000808673ffffffffffffffffffffffffffffffffffffffff1673ffffffffffffffffffffffffffffffffffffffff16815260200190815260200160002081905550816000808573ffffffffffffffffffffffffffffffffffffffff1673ffffffffffffffffffffffffffffffffffffffff168152602001908152602001600020600082825401925050819055508273ffffffffffffffffffffffffffffffffffffffff168473ffffffffffffffffffffffffffffffffffffffff167fddf252ad1be2c89b69c2b068fc378daa952ba7f163c4a11628f55a4df523b3ef84604051610e629190611188565b60405180910390a3610e75848484610f3b565b50505050565b600073ffffffffffffffffffffffffffffffffffffffff168373ffffffffffffffffffffffffffffffffffffffff1614158015610ee457504173ffffffffffffffffffffffffffffffffffffffff168273ffffffffffffffffffffffffffffffffffffffff1614155b8015610f1d5750600073ffffffffffffffffffffffffffffffffffffffff164173ffffffffffffffffffffffffffffffffffffffff1614155b15610f2b57610f2a610f40565b5b610f368383836109a3565b505050565b505050565b610f4c41600654610f4e565b565b610f56610502565b81610f5f610408565b610f6991906115e4565b1115610faa576040517f08c379a0000000000000000000000000000000000000000000000000000000008152600401610fa190611aa8565b60405180910390fd5b610fb4828261084d565b5050565b600081519050919050565b600082825260208201905092915050565b60005b83811015610ff2578082015181840152602081019050610fd7565b60008484015250505050565b6000601f19601f8301169050919050565b600061101a82610fb8565b6110248185610fc3565b9350611034818560208601610fd4565b61103d81610ffe565b840191505092915050565b60006020820190508181036000830152611062818461100f565b905092915050565b600080fd5b600073ffffffffffffffffffffffffffffffffffffffff82169050919050565b600061109a8261106f565b9050919050565b6110aa8161108f565b81146110b557600080fd5b50565b6000813590506110c7816110a1565b92915050565b6000819050919050565b6110e0816110cd565b81146110eb57600080fd5b50565b6000813590506110fd816110d7565b92915050565b6000806040838503121561111a5761111961106a565b5b6000611128858286016110b8565b9250506020611139858286016110ee565b9150509250929050565b60008115159050919050565b61115881611143565b82525050565b6000602082019050611173600083018461114f565b92915050565b611182816110cd565b82525050565b600060208201905061119d6000830184611179565b92915050565b6000602082840312156111b9576111b861106a565b5b60006111c7848285016110ee565b91505092915050565b6000806000606084860312156111e9576111e861106a565b5b60006111f7868287016110b8565b9350506020611208868287016110b8565b9250506040611219868287016110ee565b9150509250925092565b600060ff82169050919050565b61123981611223565b82525050565b60006020820190506112546000830184611230565b92915050565b6000602082840312156112705761126f61106a565b5b600061127e848285016110b8565b91505092915050565b60006112928261106f565b9050919050565b6112a281611287565b82525050565b60006020820190506112bd6000830184611299565b92915050565b600080604083850312156112da576112d961106a565b5b60006112e8858286016110b8565b92505060206112f9858286016110b8565b9150509250929050565b7f4e487b7100000000000000000000000000000000000000000000000000000000600052602260045260246000fd5b6000600282049050600182168061134a57607f821691505b60208210810361135d5761135c611303565b5b50919050565b7f4f6e6c7920746865206f776e65722063616e2063616c6c20746869732066756e60008201527f6374696f6e000000000000000000000000000000000000000000000000000000602082015250565b60006113bf602583610fc3565b91506113ca82611363565b604082019050919050565b600060208201905081810360008301526113ee816113b2565b9050919050565b7f4e487b7100000000000000000000000000000000000000000000000000000000600052601160045260246000fd5b60008160011c9050919050565b6000808291508390505b600185111561147b57808604811115611457576114566113f5565b5b60018516156114665780820291505b808102905061147485611424565b945061143b565b94509492505050565b6000826114945760019050611550565b816114a25760009050611550565b81600181146114b857600281146114c2576114f1565b6001915050611550565b60ff8411156114d4576114d36113f5565b5b8360020a9150848211156114eb576114ea6113f5565b5b50611550565b5060208310610133831016604e8410600b84101617156115265782820a905083811115611521576115206113f5565b5b611550565b6115338484846001611431565b9250905081840481111561154a576115496113f5565b5b81810290505b9392505050565b6000611562826110cd565b915061156d83611223565b925061159a7fffffffffffffffffffffffffffffffffffffffffffffffffffffffffffffffff8484611484565b905092915050565b60006115ad826110cd565b91506115b8836110cd565b92508282026115c6816110cd565b915082820484148315176115dd576115dc6113f5565b5b5092915050565b60006115ef826110cd565b91506115fa836110cd565b9250828201905080821115611612576116116113f5565b5b92915050565b7f45524332303a2064656372656173656420616c6c6f77616e63652062656c6f7760008201527f207a65726f000000000000000000000000000000000000000000000000000000602082015250565b6000611674602583610fc3565b915061167f82611618565b604082019050919050565b600060208201905081810360008301526116a381611667565b9050919050565b7f45524332303a206d696e7420746f20746865207a65726f206164647265737300600082015250565b60006116e0601f83610fc3565b91506116eb826116aa565b602082019050919050565b6000602082019050818103600083015261170f816116d3565b9050919050565b7f45524332303a20617070726f76652066726f6d20746865207a65726f2061646460008201527f7265737300000000000000000000000000000000000000000000000000000000602082015250565b6000611772602483610fc3565b915061177d82611716565b604082019050919050565b600060208201905081810360008301526117a181611765565b9050919050565b7f45524332303a20617070726f766520746f20746865207a65726f20616464726560008201527f7373000000000000000000000000000000000000000000000000000000000000602082015250565b6000611804602283610fc3565b915061180f826117a8565b604082019050919050565b60006020820190508181036000830152611833816117f7565b9050919050565b7f45524332303a20696e73756666696369656e7420616c6c6f77616e6365000000600082015250565b6000611870601d83610fc3565b915061187b8261183a565b602082019050919050565b6000602082019050818103600083015261189f81611863565b9050919050565b7f45524332303a207472616e736665722066726f6d20746865207a65726f20616460008201527f6472657373000000000000000000000000000000000000000000000000000000602082015250565b6000611902602583610fc3565b915061190d826118a6565b604082019050919050565b60006020820190508181036000830152611931816118f5565b9050919050565b7f45524332303a207472616e7366657220746f20746865207a65726f206164647260008201527f6573730000000000000000000000000000000000000000000000000000000000602082015250565b6000611994602383610fc3565b915061199f82611938565b604082019050919050565b600060208201905081810360008301526119c381611987565b9050919050565b7f45524332303a207472616e7366657220616d6f756e742065786365656473206260008201527f616c616e63650000000000000000000000000000000000000000000000000000602082015250565b6000611a26602683610fc3565b9150611a31826119ca565b604082019050919050565b60006020820190508181036000830152611a5581611a19565b9050919050565b7f45524332304361707065643a2063617020657863656564656400000000000000600082015250565b6000611a92601983610fc3565b9150611a9d82611a5c565b602082019050919050565b60006020820190508181036000830152611ac181611a85565b905091905056fea2646970667358221220063cf55ba90c27b3f3cff83593e3552ade7ea24a1f3c4478c93ee550a2fd571c64736f6c63430008110033",
  "linkReferences": {},
  "deployedLinkReferences": {}
}